:2001000031B8BECD4104CDBB08CDEF2BC73DF8D9CB2CCB1DD9CB1CCB1D18F22100003E10DA
:2001200029CB13CB123004093001133D20F2C9A7ED62D9ED62D93E20D9CB28CB19D9CB1881
:20014000CB19300519D9ED5AD9CB23CB12D9CB13CB12D93D20E2C93E102100001803193D54
:20016000C8CB21CB10ED6AB7ED5238F20C18F078AAF5AAF5F27F01210000A7ED42444DCBEA
:200180007A2807210000A7ED52EBCD5701EBF1F29901210000A7ED52EBF1F0210000A7EDAF
:2001A00042444DC9C7C93229BEFE0A20071E0D0E02CD05003A29BE5F0E02CD0500C922264B
:2001C000BE2A26BE7EB7C83228BEE53A28BECDA601E12318EFC93E0ACDA601C9223D0222E9
:2001E0003B02EBAF323F021E000610B7CB15CB14CB137BD60A3F30015F10F1CB15CB147BC8
:20020000C630CD17027CB520DE2A3B024E0600545D23EDB0AF12C9E5F52A3D02545D13ED29
:20022000533D023A3F02B728054F0600EDB83A3F023C323F0277EBF177E1C91A1A1A1A1AB3
:20024000C932CBBD2151333ACBBDB7F25302362D23ED445F1600CDDC01215133CDBE01C9E6
:20026000C922CBBD215133ED5BCBBDCB7A280DAF210000ED52EB215133362D23CDDC01212C
:200280005133CDBE01C9C92222BEFD215933FD2224BEAFFDE5E1772A22BECB7C2006AF32CE
:2002A00026BE1811ED5B22BEAF6F67ED522222BE3E013226BE2A24BE2B2224BEED4B22BE9B
:2002C000110A00CD6F017BC6302A24BE77ED4B22BE110A00CD6F01ED4322BE60697CB52038
:2002E000D4180218D03A26BEFE01200A2A24BE2B2224BE3E2D772A24BEC9322BBE3A2BBEB1
:20030000FE303807FE3A30033E01C9AFC93A2CBEC92222BEAF3228BE2100002224BE222662
:20032000BE2A22BE7EFE2D200C3E013228BE2A22BE232222BE2A22BE7EB728542A22BE7E57
:20034000CDFA02FE01203CED4B24BED9ED4B26BED9110A00D9110000D9CD2F01EBD9EBD92E
:200360002A22BE7EC6D06FAF67D96F67D919D9ED5AD92224BED92226BED92A22BE23222213
:20038000BE18B221FFFF2224BE2226BE182618A53A28BEFE01201DED5B24BED9ED5B26BE26
:2003A000D9AF676FED52D9676FED52D92224BED92226BED92A24BED92A26BED9C9218100E6
:2003C000225F330600545DFD218000FD7E006F60197877C92A5F337CB520082A5F3322CB3B
:2003E000BD185A2A5F337E32CDBDFE2020092A5F3323225F3318EC2A5F3322CBBD2A5F33D8
:200400007E32CDBDFE2028183ACDBDFE0A28113ACDBDB7200218092A5F3323225F3318DDF9
:20042000AF2A5F33773ACDBDFE2020092A5F3323225F331808DD210000DD225F332ACBBDDB
:20044000C9C92236BEC1F13235BEE12233BEC53A35BEED5B36BE2A33BE4F7BB2C871231BED
:2004600018F8C922E1BDC1E122DFBDE122DDBDC5ED5BE1BD2ADDBDED4BDFBD78B1C8EDB015
:20048000C9C932E1BDC1E122DFBDE122DDBDC52ADFBD7E32E4BDFE2038073AE4BDFE2E209D
:2004A000073E2032E4BD18153AE4BDFE2A20073E3F32E4BD18072ADFBD2322DFBD3AE4BDBC
:2004C000FE613813067A3AE4BDF578C1B838083AE4BDC6E032E4BD3AE4BD2ADDBD77232242
:2004E000DDBD3AE1BD3D32E1BDB720A31802189F2ADFBDC922D6BDC1E122D4BDC52AD4BD19
:20050000E52600E521A700CD42042AD4BD23232323E51620D5210B00CD42042AD4BD232399
:200520002323E52AD6BDE53E08CD820422D6BD2AD6BD7E32DABDFE2038123ADABDFE2E2017
:200540000218092AD6BD2322D6BD18E33ADABDFE2EC02AD4BD010C0009E52AD6BD23E53E72
:2005600003CD820422D6BDC932CFBDC1E122CDBDE122CBBDC523232322D1BD2ACBBDE52A71
:20058000CDBDCDF404AF2ACBBD23773ACFBD2ACBBD2323770E0FED5BD1BDCD050032D3BD55
:2005A0003AD3BDFEFF20073E0132D0BD1804AF32D0BD3AD0BDC932D7BDC1F132D6BDE122F5
:2005C000D4BDE122D2BDC523232322D9BD3AD7BD2AD2BD23773AD6BD2AD2BD2323773AD79D
:2005E000BDFE0120290E13ED5BD9BDCD05000E16ED5BD9BDCD050032DBBD3ADBBDFEFF2098
:20060000073E0332D8BD1824AF32D8BD181E0E0FED5BD9BDCD050032DBBD3ADBBDFEFF205D
:20062000073E0132D8BD1804AF32D8BD2AD2BD23237EB720073E1A32DCBD1804AF32DCBD07
:200640002AD2BD11270019E53ADCBDF5218000CD42043AD8BDC932CFBDC1E122CDBDE12288
:20066000CBBDC5E52ACDBDCDF4042ACBBDE52ACDBDE53ACFBDF53E01CDB605C92217BE233A
:200680007EFE01200C3E02321ABEAF3219BEC32A072A17BE7E321BBEB7204B2A17BE2323CC
:2006A00023221CBE2A17BE11270019221FBE0E1AED5B1FBECD05000E14ED5B1CBECD050097
:2006C000321EBE3A1EBEB7280BAF3219BE3E05321ABE1856DD2A17BEDD7E273219BE3E01F3
:2006E000DDE5E17718292A17BE11270019EB3A1BBE6F2600197E3219BE3A1BBEFE7F200765
:20070000AF2A17BE7718083A1BBE3C2A17BE772A17BE23237EB7200E3A19BEFE1A20073E99
:2007200005321ABE1804AF321ABE3A19BEC1F53A1ABEC5C9322BBEC1E12229BEC5237EB78B
:2007400020083E02322CBEC3D5072A29BE7E322DBE3A2BBEF511270019EB3A2DBE6F2600BC
:2007600019F1773A2DBEFE7F205F2A29BE232323222EBE2A29BE112700192231BE0E1AEDC7
:200780005B31BECD05000E15ED5B2EBECD05003230BE3A30BEB728073E04322CBE1836AF8B
:2007A0002A29BE7723237EB720073E1A322BBE1804AF322BBE2A29BE11270019E53A2BBE4C
:2007C000F5218000CD420418083A2DBE3C2A29BE77AF322CBE3A2CBEC922DDBD2323232268
:2007E000E0BDAF32E3BDAF32DFBD2ADDBD237EB72002184B2ADDBD7EB7281F2ADDBD112781
:20080000001922E4BD0E1AED5BE4BDCD05000E15ED5BE0BDCD050032E3BD0E10ED5BE0BD6A
:20082000CD050032E2BD3AE3BDB728073E0432DFBD180C3AE2BDFEFF20053E0132DFBD3ADF
:20084000DFBDC922CBBD23232322CEBD2ACBBD237EB728073E0232CDBD185C2ACBBDCDD972
:200860000732CDBDB72802184E2ACEBD23E5010B00C521D2BDCD63042ACEBDE52600E52136
:200880002400CD420411D2BDD5010B00C52ACEBD23CD6304AF2ACBBD770E0FED5BCEBDCD3A
:2008A000050032D0BD3AD0BDFEFF20073E0132CDBD1804AF32CDBD3ACDBDC9C92222BEEDC2
:2008C0005B22BE2100001AB7C8132318F92A24BEC92224BEC1E12222BEC52A24BEED5B2224
:2008E000BE7E12B7C8231318F8C9C92220BEC1E1221EBEE1221CBEC52A1EBEED5B1CBEEDFC
:200900004B20BE7E12B7C80B78B1231320F5C9C92224BEC1E12222BEC52A24BEED5B22BEED
:200920001A13B720FB1B7E12B7C8231318F8C9222EBEC1E1222CBEC5ED5B2CBE2A2EBE1A9C
:20094000BE2004B7C8180530073EFFC9231318EF3E01C93A30BEC92235BEC1E12233BEE1FB
:200960002231BEC5ED5B31BE2A33BEED4B35BE1ABE2004B7C81805300B3EFFC923130B7892
:20098000B1C818EB3E01C93A37BEC92224BEC1E12222BEC5ED5B24BE2A22BE1ABE2809230E
:2009A0007EB720F7210000C9424B131AB7C8E5231ABE200F23131AB728077EB720F2E11843
:2009C000E3E1C9E1237EB728DB505918CE2A26BEC92224BEC1E12222BEC5ED5B24BE2A2205
:2009E000BE1ABE2809237EB720F7210000C9424B131AB72814E5231ABE201223131AB728E9
:200A0000077EB720F2E118E2E1227733C9E1237EB728D7505918CA2A26BEC93224BEC1E1E7
:200A20002222BEC53A24BE4F2A22BE79BEC8237EB720F8210000C92A25BEC9320EBEC1E1AB
:200A4000220CBEC53A0EBE5F010000180223037EB720FA2B79B028060B7EBB20F6C921002A
:200A600000C92A0FBEC9221CBE7EFE0A282FFE09202B237EFE6A20252323237EFE65281DE5
:200A8000FE63200B237EFE2C280C2B227933C9237EFE2C28012323237EFE6328EE21000096
:200AA000C92A1EBEC92210BE7EFE0A282BFE092027237EFE6A20212323237EFE65281DFEB0
:200AC000632007237EFE2C2B200E237EFE2C28012323237EFE652804210000C9227B33C97B
:200AE0002A12BEC9222BBE3E300605772310FC3600C9C92226BEC1E12224BEE12222BEC5ED
:200B0000545D2A26BE192222BEED5B24BE2A26BE192224BEAF2A22BE77210000ED5B26BE29
:200B2000A7ED52D02A24BE2B2224BE2A22BE2B2222BE2A24BE7E2A22BE772A26BE2B222601
:200B4000BE18D6C9220FBECDBC082211BE2A0FBE23E52A0FBEE52A11BECDF30A3E3B2A0F5F
:200B6000BE77C922CBBD23232322CDBD0E13ED5BCDBDCD0500C92212BEC1E12210BEC52AB7
:200B800012BECD7C063216BEF13215BE3A16BEFE0520073E013214BE181C3A15BE2A10BE86
:200BA00077232210BEFE0A20D6AF2A10BE77AF3214BE180218C93A14BEC92224BEC1E12244
:200BC00022BEC52A22BE7E3227BEB72006AF3226BE181B2A22BE232222BE2A24BEE53A277B
:200BE000BECD34073226BEB728D9180218D53A26BEC922CBBDAF32CEBD3ACEBDF53A863BA8
:200C000047F1B8302601223B3ACEBD6F260029095E23562ACBBDA7ED5220073E0132CDBD13
:200C2000180D3ACEBD3C32CEBD18CEAF32CDBD3ACDBDC9546F6F206D616E79204C644C646C
:200C40005265742073747275637475726573210A002210BE3A863BFE32200921330CCDBE8B
:200C600001CDA401ED5B10BE01223B3A863B6F260029097323723C32863BC9546F6F206D0C
:200C8000616E79206A7020746F20656E645F66210A002210BE2AAD421138FF197CB5200904
:200CA000217B0CCDBE01CDA4012AAF42E52A10BEE5210800CDEB08ED5BAF4221080019222B
:200CC000AF42AF772322AF422AAD422322AD42C92222BEFD210000FD2225BEDD21A53BDDD4
:200CE0002227BE2A25BEED5BAD42A7ED52302B2A27BEE52A22BEE5210800CD5709B7200751
:200D00003E013224BE18172A25BE232225BE2A27BE110900192227BE18C9AF3224BE3A24D1
:200D2000BEC92222BEFD210000FD2226BE2A22BE7ECDFA02FE0120102A22BE232222BE2A30
:200D400026BE232226BE18E52A22BE2B2222BE21B5422228BE21B142CDE40A210000ED5BFA
:200D600026BEA7ED52301C2A22BE7E2A28BE772B2228BE2A22BE2B2222BE2A26BE2B222663
:200D8000BE18D811B142ED5324BE2A24BEC92213BEFD210000FD2216BE011F4CED4318BE34
:200DA0002A16BEED5B774EA7ED5230282A18BEE52A13BECD2F09B720073E013215BE1818B3
:200DC0002A16BE232216BEED5B18BE210600192218BE18CCAF3215BE3A15BEC9546F6F20E6
:200DE0006D616E792073746F72654173210A002210BECD8E0DB7C02A774E119CFF197CB55E
:200E0000200921DC0DCDBE01CDA4012A794EE52A10BECDD1082A774E2322774EED5B794E25
:200E20002106001922794EC92213BEFD210000FD2216BEDD217B4EDD2218BE2A16BEED5BDA
:200E4000D350A7ED5230282A18BEE52A13BECD2F09B720073E013215BE18182A16BE2322B7
:200E600016BEED5B18BE210600192218BE18CCAF3215BE3A15BEC9546F6F206D616E7920B3
:200E800073746F7265525273210A002210BECD280EB7C02AD350119CFF197CB52009217775
:200EA0000ECDBE01CDA4012AD550E52A10BECDD1082AD3502322D350ED5BD55021060019F2
:200EC00022D550C92213BEFD210000FD2216BE11D750ED5318BE2A16BEED5B2F53A7ED5202
:200EE00030282A18BEE52A13BECD2F09B720073E013215BE18182A16BE232216BEED5B18EC
:200F0000BE210600192218BE18CCAF3215BE3A15BEC9546F6F206D616E79206C6F61644165
:200F200073210A002210BECDC40EB7C02A2F53119CFF197CB5200921120FCDBE01CDA40102
:200F40002A3153E52A10BECDD1082A2F5323222F53ED5B315321060019223153C92213BE7F
:200F6000FD210000FD2216BE013353ED4318BE2A16BEED5B8B55A7ED5230282A18BEE52A60
:200F800013BECD2F09B720073E013215BE18182A16BE232216BEED5B18BE2106001922187A
:200FA000BE18CCAF3215BE3A15BEC9546F6F206D616E79206C6F6164525273210A002210CA
:200FC000BECD5D0FB7C02A8B55119CFF197CB5200921AB0FCDBE01CDA4012A8D55E52A1076
:200FE000BECDD1082A8B5523228B55ED5B8D5521060019228D55C92224BEC1E12222BEC5BA
:20100000FD210000FD2227BEDD219155DD2229BE2A27BEED5B2F65A7ED5230442A29BEE5A9
:201020002A24BECD2F09322BBE118F552A27BE292929195E23562A22BEA7ED52200D3A2B93
:20104000BEB720073E013226BE18192A27BE232227BE118F552929291923232229BE18B095
:20106000AF3226BE3A26BEC9546F6F206D616E792072656D6F766573210A002212BEC1E1DD
:201080002210BEC5E52A12BECDF70FB7C02A2F65110CFE197CB52009216810CDBE01CDA490
:2010A00001ED4B10BE118F552A2F65292929197123702A3165E52A12BECDD1082A2F6523B8
:2010C000222F65118F55292929192323223165C92213BEFD210000FD2216BE01B742ED43DC
:2010E00018BE2A16BEED5B6747A7ED5230282A18BEE52A13BECD2F09B720073E013215BEE1
:2011000018182A16BE232216BEED5B18BE210600192218BE18CCAF3215BE3A15BEC9546F01
:201120006F206D616E79207265667341210A002210BECDD010B7C02A67471138FF197CB5B1
:201140002009211E11CDBE01CDA4012A6947E52A10BECDD1082A674723226747ED5B6947F8
:2011600021060019226947C92213BEFD210000FD2216BEDD216B47DD2218BE2A16BEED5BC5
:201180001B4CA7ED5230282A18BEE52A13BECD2F09B720073E013215BE18182A16BE232230
:2011A00016BEED5B18BE210600192218BE18CCAF3215BE3A15BEC9546F6F206D616E792070
:2011C000726566735252210A002210BECD6811B7C02A1B4C1138FF197CB5200921B711CDE1
:2011E000BE01CDA4012A1D4CE52A10BECDD1082A1B4C23221B4CED5B1D4C21060019221D3B
:201200004CC93224BEC1E12222BEC52A60BB7CB5200A11FFFFED5325BEC35113FD21000025
:20122000FD2227BE2A22BE222ABE2A2ABE7E473A24BEB828102A27BE232227BE2A2ABE2345
:20124000222ABE18E5AF3229BE2A22BE23222ABE7E322EBE23222ABE7E322FBE3A2EBEF507
:20126000DD2134653A29BE5F1600010600CD1B01DDE5D1197EC1B820203A2FBEF5DD213420
:20128000653A29BE5F1600010600CD1B01DDE5D119237EC1B82002181D3A3365473A29BE0C
:2012A000B8200A11FFFFED5325BEC351133A29BE3C3229BE18A6DD2134653A29BE5F160092
:2012C000010600CD1B01DDE5D11923237E23666F2225BEDD2134653A29BE5F16000106007D
:2012E000CD1B01DDE5D119E5DDE1DD6E04DD6605222CBEDD217065ED5B25BE010B00CD1B21
:2013000001DDE5D119222ABE210000ED5B2CBEA7ED5230362A22BEE52A2ABEE52A27BECDB5
:201320005709B72002182A2A2CBE2B222CBE2A25BE232225BEDD217065545D010B00CD1B3A
:2013400001DDE5D119222ABE18BE11FFFFED5325BE2A25BEC9546F6F206D616E79206C6FF6
:2013600063616C206C6162656C73210A00546F6F206D616E79206D6F64756C6573210A0034
:201380002210BEFD210000FD2212BEE53E0ACD02122214BE110100197CB5C27C152A60BB5A
:2013A0001130F8197CB52009215513CDBE01CDA4012A10BE2216BE2A16BE7EFE0A28102A26
:2013C00012BE232212BE2A16BE232216BE18E82A10BE232216BE7E3218BE232216BE7E32B1
:2013E00019BE210000ED5B60BBA7ED52D27D143A18BEF5DD2134653A33655F16000106005F
:20140000CD1B01DDE5D1197EC1B8201E3A19BEF5DD2134653A33655F1600010600CD1B012E
:20142000DDE5D119237EC1B828533A3365FE092009216D13CDBE01CDA4013A33653C323357
:2014400065FD2A60BBDD2134655F1600010600CD1B01DDE5D1192323FDE5D1732372DD213E
:2014600034653A33655F1600010600CD1B01DDE5D119E5DDE1DD360400DD360500DD2134EC
:20148000653A33655F1600010600CD1B01DDE5D119E5DDE1DD6E04DD66057CB520353A18F2
:2014A000BEF5DD2134653A33655F1600010600CD1B01DDE5D119F1773A19BEF5DD213465FA
:2014C0003A33655F1600010600CD1B01DDE5D11923F177DD2134653A33655F1600010600B9
:2014E000CD1B01DDE5D119E5DDE1DD6E04DD6605E5FDE1FD23DD2134653A33655F1600015B
:201500000600CD1B01DDE5D119E5DDE1FDE5E1DD7504DD7405DD217065ED5B60BB010B00DC
:20152000CD1B01DDE5D1192216BEE52A10BEE52A12BECDEB08ED5B16BE2A12BE192216BE7F
:20154000AF77DD217065ED5B60BB010B00CD1B01DDE5D119E5DDE1DD360901DD217065ED0E
:201560005B60BB010B00CD1B01DDE5D119E5DDE1DD360A002A60BB232260BBC9DD21706553
:20158000ED5B14BE010B00CD1B01DDE5D119E5DDE1DD7E093CF5DD217065ED5B14BE010B5F
:2015A00000CD1B01DDE5D119E5DDE1F1DD7709C96C6420686C2C630064772063000963615E
:2015C0006C6C20006C6420280077732B00686C0077732B006C642000206100686C0009723D
:2015E0006574005F5F6D61696E00776F726B7370616365206174200077732B00FD21000098
:20160000FD222F65DD219155DD223165FD221D3BAF321F3BAF32203BAF32213B11CD34D58C
:20162000217F33CD760BB7C011CD34ED530D3B2A613323226133626BE521B015CD8B0922C6
:201640000F3B7CB5280D2A0F3B01060009CD8013C3281A2A0D3BE521B815CDD1097CB528AC
:201660000C2A7733232323CD8013C3281A2A0D3BCDA50A7CB528092A7B33CD920CC3281A24
:201680002A0D3BCD660A7CB528092A7933CD8013C3281A3A1F3BFE01C2A619AF32D3BD2A4F
:2016A0000D3B7EFE6520173E0132203B2A0D3BCDD00CB7C2281A3E013262BBC3281A2A0D5E
:2016C0003BE521BD15CD8B097CB528083E0332213BC3281A2A0D3BE521C415CD8B097CB57E
:2016E000CA68172A0D3BE521C915CD8B09220F3B7CB5CA281A2A0F3B232323CD220D221333
:201700003B2A0F3BE53E61CD1B0A7CB528173E0132D3BD11963BD521B142CDD1082A613304
:20172000229C3B181E2A0F3BE521CD15CD8B097CB5281001873BC521B142CDD1082A613354
:20174000228D3B06003A213BF578C1B8D2281A3AD3BDFE01200921B142CDEF0DC3281A2114
:20176000B142CD8B0EC3281A2A0D3BE53E2CCD1B0A22EABD2A0D3BE521D015CDD10922EC7D
:20178000BD2A0D3BE521D415CD8B0922EEBD2AEABD7CB5CA67182AECBD7CB5CA67182AEE4D
:2017A000BD7CB5CA67182A7733232323CD220D22133B2A0D3BE521D815CD8B097CB5282307
:2017C0003E0132D3BD11B142D521173BCD2F09B7F2DB1721B142CD2F11182421B142CD24BA
:2017E0000F181C11B142D521173BCD2F09B7F2F91721B142CDC911180621B142CDBE0F3ADB
:2018000062BBFE01C2281A2A0D3BE521DB15CD8B097CB5282511B142D521873BCD2F09B7E9
:20182000C2281AED5B8D3B2A61332B2BA7ED52C2281A3E01328F3BC3281A3AD3BDFE01C2CB
:20184000281A11B142D521963BCD2F09B7C2281AED5B9C3B2A61332B2BA7ED52C2281A3E60
:2018600001329E3BC3281A2A0D3BE521DE15CD8B0922FABD3A203BFE01C2281A2AFABD7CBD
:20188000B5CA281A3A8F3BFE01200C2A8D3BCD510CAF328F3B18113A9E3BFE01200A2A9C66
:2018A0003BCD510CAF329E3BAF32203BFD210000FD22CBBDDD211F4CDD22FCBD2ACBBDED48
:2018C0005B774EA7ED52305E2AFCBDE521173BCD2F0932FEBD2AFCBDCDC40E32FFBD2AFCB1
:2018E000BDCD5D0F3200BE2AFCBDCDD0103201BE3AFEBDB7FA13193AFFBDB720163A00BED4
:20190000B720103A01BEB7200A2A1D3BE52AFCBDCD7B102ACBBD2322CBBD2AFCBD010600FB
:201920000922FCBD1896FD210000FD22CBBD117B4EED5302BE2ACBBDED5BD350A7ED523043
:201940005E2A02BEE521173BCD2F093204BE2A02BECD5D0F3205BE2A02BECDC40E3206BE57
:201960002A02BECD68113207BE3A04BEB7FA8C193A05BEB720163A06BEB720103A07BEB769
:20198000200A2A1D3BE52A02BECD7B102ACBBD2322CBBD2A02BE010600092202BE1896AFBC
:2019A000321F3BC3281A2A0D3BE521E315CD8B092208BE2A0D3BE521EA15CD8B09220ABE1B
:2019C0002A08BE7CB520612A0ABE7CB5285A3E01321F3B2A1D3B23221D3BFD210000FD2299
:2019E000774EFD22D350DD211F4CDD22794E117B4EED53D550FD222F53FD228B5521D7508A
:201A0000223153013353ED438D55AF3262BB2A0D3BE521F815CD8B09232323220F3BCD22DF
:201A20000D11173BD5CDD10806003A213BF578C1B8D21C163A213B3D32213BC31C16C954C2
:201A40004F503A0009700075736820006F702000096A7220000963616C6C200061646420B2
:201A600000616463200030780064776F7264006465667720002C20000A004C4F4D454D00C0
:201A800009676C6F62616C205F5F486273730A005F5F486273730A00656E645F66005F5F42
:201AA0006D61696E00776F726B737061636520617420006C6420280077732B0030303030B0
:201AC0003000096A70206300097265740022CBBDAF32CDBDE5213F1AE5210400CD5709B7BA
:201AE00020083E0132CDBDC389212ACBBDE521441ACD8B09220F3B7CB5CA6A1C2A0F3B235B
:201B000023220F3BE521471AE5210400CD5709B7C2BA1B2A0F3B23232323220F3B7EFE6200
:201B2000202D2A0F3B23220F3B7EFE63CA6A1C2A6533232265333E632A0F3B7723220F3B6C
:201B40003E0A7723220F3BAF77C38921C36A1C2A0F3B7EFE64202D2A0F3B23220F3B7EFE3B
:201B600065CA6A1C2A6533232265333E652A0F3B7723220F3B3E0A7723220F3BAF77C38934
:201B800021C36A1C2A0F3B7EFE68C26A1C2A0F3B23220F3B7EFE6CCA6A1C2A653323226594
:201BA000333E6C2A0F3B7723220F3B3E0A7723220F3BAF77C38921C36A1C2A0F3BE5214CDE
:201BC0001AE5210300CD5709B7C26A1C2A0F3B232323220F3B7EFE62202C2A0F3B23220F7B
:201BE0003B7EFE63CA6A1C2A6733232267333E632A0F3B7723220F3B3E0A7723220F3BAFC0
:201C000077C3892118642A0F3B7EFE64202B2A0F3B23220F3B7EFE6528502A6733232267F9
:201C2000333E652A0F3B7723220F3B3E0A7723220F3BAF77C3892118312A0F3B7EFE6820B2
:201C4000292A0F3B23220F3B7EFE6C281D2A6733232267333E6C2A0F3B7723220F3B3E0A1C
:201C60007723220F3BAF77C389212ACBBDE53E3ACD1B0A220F3B7CB52847011F002A0F3B2A
:201C8000ED5BCBBDA7ED52EB6069A7ED5230292ACBBD011F000922113B3E3A772322113BD2
:201CA0002A0F3BED5B113BA7ED52380C3E202A113B772322113B18E83A7D33B72003C38906
:201CC000212ACBBDE521501ACD8B09220F3B7CB5CA5F1D2A6933232269332A0F3B232322FA
:201CE0000F3B3E7077E53E2CCD1B0A22113B7CB5280A2A113B232322113B18082A0F3B2382
:201D00002322113B2A113BCDBC0822E5BD211F00ED5BE5BDA7ED52303D2A113B011F00094B
:201D200022113B7EFE30380C06392A113B7EF578C1B8301C2A113B7EFE41380C067A2A11AE
:201D40003B7EF578C1B830082A113B7EFE5F20063E3B2A113B773A7D33B72003C389212A74
:201D6000CBBDE521551ACD8B09220F3B7CB5CAF01D2A0F3BE53E2CCD1B0A22113B7CB52815
:201D80000A2A113B232322113B180A2A0F3B1106001922113B2A113BCDBC0822EBBD211FCA
:201DA00000ED5BEBBDA7ED52303D2A113B011F000922113B7EFE30380C06392A113B7EF5BB
:201DC00078C1B8301C2A113B7EFE41380C067A2A113B7EF578C1B830082A113B7EFE5F204C
:201DE000063E3B2A113B773A7D33B72003C389212ACBBDE5215C1ACD8B09220F3B7CB528F2
:201E0000462A0F3B23232323220F3B7EFE61282E2A0F3B7EFE6828262A0F3BCDBC0822EF21
:201E2000BD2A0F3B2323E52A0F3BE52AEFBDCDF30A3E612A0F3B7723220F3B3E2C773A7D9C
:201E400033B72003C389212ACBBDE521611ACD8B09220F3B7CB528462A0F3B232323232247
:201E60000F3B7EFE61282E2A0F3B7EFE6828262A0F3BCDBC0822F3BD2A0F3B2323E52A0F90
:201E80003BE52AF3BDCDF30A3E612A0F3B7723220F3B3E2C773A7D33B72003C389212ACB5E
:201EA000BDE521661ACD8B09220F3B7CB528272A0F3B232323220F3B7E32153B3E68772B01
:201EC000220F3B7E32163B3A153B772B220F3B3A163B77C389212ACBBDE521691ACDD109AC
:201EE0007CB5CA911F2A6B3323226B332A7733E53E20CD1B0A22113B2322113BE53E0ACD8A
:201F00001B0A220F3BAF772A113BCD110322FDBDD922FFBDD92AFDBDD92AFFBDD922CEBD1E
:201F2000D922D0BDD92ACEBDD92AD0BDD922D2BD3E10CD0D0122D4BD2ACBBDE5216F1ACD87
:201F4000D1082AD2BDCD87022201BE2ACBBDE52A01BECD10092ACBBDE521751ACD10092AFB
:201F6000D4BDCD87022203BE2ACBBDE52A03BECD10092ACBBDE521781ACD10092ACBBDE568
:201F80003E0ACD1B0A22133B2322133BAF77C389212ACBBDE5217A1ACD8B09220F3B7CB527
:201FA000281A21801AE5212634CDBA0B32153B2A0F3BE521901ACDD108C389213A7D33B7D8
:201FC0002003C389212ACBBDE521981AE5210500CD5709B72015AF321F3B2ACBBDCDD00C4D
:201FE000B720083E0232CDBDC389212ACBBDE5219E1ACD8B09220CBE2ACBBDE521A51ACD98
:202000008B09220EBE2A0CBE7CB520132A0EBE7CB5280C3E01321F3B2A1D3B23221D3B3A67
:202020001F3BFE0120592ACBBDE521B31ACD8B09220F3B7CB528482A0F3BE521B81ACD8B37
:2020400009220F3B232323220F3BCD220D22133B11B142D521BC1ACD2F093216BE2A1D3B6D
:20206000E521B142CDF70F3217BE3A16BEB7280F3A17BEFE0120083E0232CDBDC389212AC8
:20208000CBBD7EFE6320412ACBBDE53E3ACD021222D6BD110100197CB5200F2A6333232243
:2020A00063333E0232CDBDC38921ED5BD6BD0163BB3A77BB6F260029097323723C3277BB4C
:2020C0003E0332CDBDC389212ACBBDE53E2CCD1B0A221ABE2ACBBDE521C21ACDD109221C30
:2020E000BE2A1ABE7CB520492A1CBE7CB528422A773323232323E53E0ACD021222D8BDAF13
:2021000032153B3A153BF53A77BB47F1B8D289210163BB3A153B6F260029097E23666FE51B
:202120002AD8BDCD9F213A153B3C32153B18D418582ACBBDE521C81ACD8B092220BE2ACBBF
:20214000BD7EFE3B28432A20BE7CB5283CAF32153B3A153BF53A77BB47F1B8302CDD21702D
:20216000651163BB3A153B6F260029195E2356010B00CD1B01DDE5D119E5DDE1DD360A0131
:202180003A153B3C32153B18C83ACDBDC9546F6F206D616E79204A70546F2E2E2E0A002230
:2021A00024BEC1E12222BEC53A08BDFE642009218D21CDBE01CDA401ED5B22BE0178BB3AE7
:2021C00008BD6F2600292909732372ED5B24BE0178BB6F260029290923237323723C320830
:2021E000BDC911CD34D5212634CDBA0B32153B01CD36C5212634CDBA0B32153B11CD38D5A0
:20220000212634CDBA0B32153BC901CD34C5212634CDBA0B32153B11CD36D5212634CDBA25
:202220000B32153BC901CD34C5212634CDBA0B32153BC92A71332322713321CD34CD440B34
:2022400001CD34C5212634CDBA0B32153B21CD36CD440B11CD36D5212634CDBA0B32153B70
:2022600021CD38CD440B01CD38C5212634CDBA0B32153BC9096A7020000972657420002062
:202280003B00203B20002A0D3BCD660A22113B7CB5CAB02311CD3AD52A113BCDD1082A1159
:2022A0003BE53E0ACD02122210BE2A08BD2600E52178BBE52A10BEE5CD9F32C1C1C12212C0
:2022C000BEAF320DBEDD217065ED5B12BE010B00CD1B01DDE5D119E5DDE1DD7E0AB7CA6619
:2022E0002311CD3AD52A0D3BCDD1082A0D3BE5217422CD8B09220F3B2A0D3BE53E2CCD1B32
:202300000A7CB528282A0F3B23232323220F3B7E320DBE23220F3B7EFE2C2006AF320EBE41
:20232000180B2A0F3B7E320EBEAF320FBE2A6D3323226D332A0D3BE5217922CDD1082A0D3D
:202340003BE5210DBECD10092A0D3BE5217F22CD10092A0D3BE521CD3ACD1009CD25223ED5
:2023600001320CBE184EED5B10BE2A12BEA7ED52283E2A6F3323226F332A113BE5DD217022
:2023800065ED5B12BE010B00CD1B01DDE5D119CDD1082A113BE5218222CD10092A113BE518
:2023A00021CD3ACD1009CD25223E01320CBE1804AF320CBE3A0CBEC96A70206E7A2C20639B
:2023C00000096A70206300096A70207A2C000A000963616C6C2066000963616C6C207A2C4E
:2023E000000A00097265740009726574207A000A006A70207A2C206300096A7020630009F5
:202400006A70206E7A2C000A000963616C6C2066000963616C6C206E7A2C000A00097265B6
:20242000740009726574206E7A000A00CD8622B7C011CD34D521B823CD8B09220F3B7CB5F5
:20244000CA9D262A0F3B01070009E53E0ACD0212DD217065545D010B00CD1B01DDE5D11937
:20246000E5DDE1DD7E09FE01C29926011BBDC52A0F3B11070019E5210800CDEB08AF3223C0
:20248000BD11CD36D5217F33CD760B32153B11CD36D521C123CD8B09220F3B11CD36D53E11
:2024A0002CCD3B0A7CB5C244252A0F3B7CB5CA4425012CBDC52A0F3B23232323E5210800ED
:2024C000CDEB08AF3234BD11CD38D5217F33CD760B32153B11CD38D53E3ACD3B0A22D6BDB2
:2024E0003ACD38FE6320592AD6BD7CB52852013CBDC511CD38D5210800CDEB08AF3244BDE6
:20250000013CBDC5211BBDCD2F09B7202FCD332211CD3AD521C723CDD10811CD3AD5212CFE
:20252000BDCD100911CD3AD521CE23CD100911CD3AD5212634CDBA0B32153BC9CDE221C935
:20254000CDE221C901CD36C521D023CD8B09220F3B7CB5CA1126ED5B0F3B21060019CDBCAB
:202560000822DCBD114CBDD5ED5B0F3B21060019E52ADCBD2BCDF30AED5B0F3B2106001968
:20258000CDBC0822DEBD0600114CBD3ADEBD3D6F6019787701CD38C5217F33CD760B3215B1
:2025A0003B01CD38C53E3ACD3B0A22E1BD3ACD38FE6320592AE1BD7CB52852113CBDD5015F
:2025C000CD38C5210800CDEB08AF3244BD113CBDD5211BBDCD2F09B7202FCD332201CD3A59
:2025E000C521D823CDD10801CD3AC5214CBDCD100901CD3AC521E123CD100901CD3AC521B1
:202600002634CDBA0B32153BC9CDE221C9CDE221C911CD36D521E323CD8B09220F3B7CB543
:20262000287301CD38C5217F33CD760B32153B01CD38C53E3ACD3B0A22E8BD3ACD38FE63D5
:20264000204F2AE8BD7CB52848113CBDD501CD38C5210800CDEB08AF3244BD113CBDD52126
:202660001BBDCD2F09B72025CD332201CD3AC521E823CDD10801CD3AC521EF23CD100901D9
:20268000CD3AC5212634CDBA0B32153BC9CDE221C9CDE221C9CD0A22C9CD2522C911CD3433
:2026A000D521F123CD8B09220F3B7CB5CA1029ED5B0F3B21060019E53E0ACD0212DD2170C1
:2026C00065545D010B00CD1B01DDE5D119E5DDE1DD7E09FE01C20C29010ABDC52A0F3B1134
:2026E000060019E5210800CDEB08AF3212BD11CD36D5217F33CD760B32153B11CD36D521A7
:20270000F923CD8B09220F3B11CD36D53E2CCD3B0A22F3BD2A0F3B7CB5CAB7272AF3BD7CF6
:20272000B5C2B727012CBDC52A0F3B23232323E5210800CDEB08AF3234BD11CD38D5217F6A
:2027400033CD760B32153B11CD38D53E3ACD3B0A22F6BD3ACD38FE6320592AF6BD7CB528DD
:2027600052013CBDC511CD38D5210800CDEB08AF3244BD013CBDC5210ABDCD2F09B7202FE0
:20278000CD332211CD3AD521FF23CDD10811CD3AD5212CBDCD100911CD3AD5210724CD104E
:2027A0000911CD3AD5212634CDBA0B32153BC9CDE221C9CDE221C901CD36C5210924CD8B2A
:2027C00009220F3B7CB5CA8428ED5B0F3B21060019CDBC0822FCBD114CBDD5ED5B0F3B21FD
:2027E000060019E52AFCBD2BCDF30AED5B0F3B21060019CDBC0822FEBD0600114CBD3AFE65
:20280000BD3D6F6019787701CD38C5217F33CD760B32153B01CD38C53E3ACD3B0A2201BE43
:202820003ACD38FE6320592A01BE7CB52852113CBDD501CD38C5210800CDEB08AF3244BD76
:20284000113CBDD5210ABDCD2F09B7202FCD332201CD3AC5211124CDD10801CD3AC5214C81
:20286000BDCD100901CD3AC5211B24CD100901CD3AC5212634CDBA0B32153BC9CDE221C9E4
:20288000CDE221C911CD36D5211D24CD8B09220F3B7CB5287301CD38C5217F33CD760B329D
:2028A000153B01CD38C53E3ACD3B0A2208BE3ACD38FE63204F2A08BE7CB52848113CBDD50C
:2028C00001CD38C5210800CDEB08AF3244BD113CBDD5210ABDCD2F09B72025CD332201CDAA
:2028E0003AC5212224CDD10801CD3AC5212A24CD100901CD3AC5212634CDBA0B32153BC985
:20290000CDE221C9CDE221C9CD0A22C9CD2522C9CD2522C9496E76616C696420706172617E
:202920006D6574657273210A55736167652069733A20636F7766697820696E5F66696C650B
:20294000206F75745F66696C65205B2D4F5D205B2D535D0A0043616E6E6F74206F70656E15
:2029600020696E7075742066696C65210A00636F776669782E2424240043616E6E6F74206F
:202980006F70656E206F75747075742066696C65210A0043616E6E6F74206F70656E206F05
:2029A00075747075742066696C65210A00434F5746495820760020666978696E67207379D3
:2029C0006E7461780020616E64206F7074696D697A696E6720636F6465005041535320313C
:2029E0000A005041535320320A0043616E6E6F7420726577696E6420696E707574206669EF
:202A00006C65210A0009707365637420746578740A00096C642073702C544F50535441437D
:202A20004B0A000964772000096462000964656662200009676C6F62616C205F6578697401
:202A40000A005F657869743A2072737420300A0009707365637420646174610A0077733A36
:202A60000A0009646566732000097073656374206273730A00096465667320313032340A4B
:202A8000000964656673203132380A00544F50535441434B3A0A005041535320330A006322
:202AA0006F776669782E2424240020666978656420505553482073746174656D656E747357
:202AC0000A0020666978656420504F502073746174656D656E74730A0020666978656420EB
:202AE0004A522073746174656D656E74730A002066697865642044574F524420737461741C
:202B0000656D656E74730A0020666978656420746F6F206C6F6E67204442207374617465C6
:202B20006D656E74730A00206E6F74206E6565646564206C6162656C732064726F70706531
:202B4000640A00205245542073746174656D656E74732061646465640A0020666978656448
:202B6000204A5020746F204A502073746174656D656E74730A0020666978656420737461D4
:202B800074656D656E742067726F75707320696E766F6C76696E6720636F6E646974696F73
:202BA0006E616C730A002064726F70706564206E6F74206E6565646564204C442073746141
:202BC00074656D656E74730A0020696E70757420736F75726365206C696E65732070726F3E
:202BE0006365737365640A00444F4E45210A00FD210000FD226133FD226333FD226533FDC9
:202C0000226733FD226933FD226B33FD226D33FD226F33FD227133FD227333FD227533AF02
:202C2000327D33AF327E33AF32863BAF328F3BAF329E3BFD210000FD22AD42DD21A53BDD32
:202C400022AF42FD210000FD22674701B742ED436947FD221B4CDD216B47DD221D4CAF321D
:202C60003365FD210000FD2260BBAF3262BBAF3277BBAF3208BDAF3209BDAF321ABDAF326D
:202C80002BBDFD210000FD223665FD223865CDBD03CDD4032295BD228DBDCDD4032297BD8D
:202CA000228FBDCDD4032299BD2291BDCDD403229BBD2293BD2A91BD7CB528053E01327DC6
:202CC000332A93BD7CB528053E01327E332A8DBD7CB528072A8FBD7CB52009211429CDBE3A
:202CE00001CDA401117F33D52A8DBDE5AFCD6805329DBDB72809215529CDBE01CDA4013A3C
:202D00007D33FE01201D212634E5216E29E5AFCD5606329EBDB72826217929CDBE01CDA4A0
:202D200001181B212634E52A8FBDE5AFCD5606329FBDB72809219329CDBE01CDA40121ADAD
:202D400029CDBE013E11CD410221B629CDBE013A7D33FE01200621C529CDBE01CDD6013A4B
:202D60007D33FE01203421DA29CDBE01CDFC1521E229CDBE01AF321F3BFD210000FD221D75
:202D80003BFD226133217F33CD430832A0BDB7280921EA29CDBE01CDA40101CD34C5217F4A
:202DA00033CD760B32A1BD32153B2A61332322613301CD34C5217F33CD760B32A2BD321529
:202DC0003B2A61332322613321052AE5212634CDBA0B32A3BD32153B21122AE5212634CD41
:202DE000BA0B32A4BD32153B01CD34C5217F33CD760B32A5BDB7C2193001CD34ED430D3B41
:202E00002A6133232261336069E521232AE5210400CD570932A6BDB7205F2A0D3B2323CD78
:202E2000BC0822A7BD2A0D3B11060019E52A0D3B23232323E52AA7BDCDF30A2A0D3B2323CE
:202E4000220F3B3E657723220F3B3E667723220F3B3E777723220F3B3E20773A7D33FE013A
:202E60002004AF3277BB01CD34C5212634CDBA0B32A9BD32153BC3E82D2A0D3BE521282A8B
:202E8000E5210300CD570932AABDB7C2602F2A0D3B2323CDBC0822ABBD2A0D3B11060019E6
:202EA000E52A0D3B23232323E52AABBDCDF30A2A0D3B2323220F3B3E657723220F3B3E667D
:202EC0007723220F3B3E627723220F3B3E207721CD34CDBC0822ADBD218000ED5BADBDA738
:202EE000ED52305D2A733323227333DD214D35DD220F3B2A0F3B7EFE2C28092A0F3B2B2274
:202F00000F3B18EF01CD36C5212C2ACDD10801CD36C52A0F3B23CD10093E0A2A0F3B7723DE
:202F2000220F3BAF7711CD34D5212634CDBA0B32AFBD32153B11CD34D521CD36CDD1081822
:202F40008E11CD34D5212634CDBA0B32B0BD32153B3A7D33FE01C2E82DAF3277BBC3E82D23
:202F60002A6133CDF20B32B1BD3A7D33FE01206B3AB1BDFE0120642A753323232275331197
:202F8000CD34D5217F33CD760B32B2BD32153B2A61332322613311CD34D5217F33CD760B78
:202FA00032B3BD32153B2A61332322613311CD34D5217F33CD760B32B4BD32153B2A61336B
:202FC0002322613311CD34D5212634CDBA0B32B5BD32153BAF3277BBC3E82D2A0D3BCDCD07
:202FE0001A32B6BD328CBDB7200D3A7D33FE012006AF3277BB180F3A8CBDFE01281B3A8CDF
:20300000BDFE02CAE82D11CD34D5212634CDBA0B32B7BD32153BC3E82D21332AE521263442
:20302000CDBA0B32B8BD32153B21422AE5212634CDBA0B32B9BD32153B11CD34D5217F3372
:20304000CD760B32BABD32153B11CD34D5217F33CD760B32BBBD32153B21502AE5212634C8
:20306000CDBA0B32BCBD32153B215D2AE5212634CDBA0B32BDBD32153B01CD36C521622A53
:20308000CDD10801CD36C521DA34CD100901CD36C5212634CDBA0B32BEBD32153B21692AF3
:2030A000E5212634CDBA0B32BFBD32153B3A7E33FE01201221752AE5212634CDBA0B32C02E
:2030C000BD32153B181021812AE5212634CDBA0B32C1BD32153B218C2AE5212634CDBA0BD0
:2030E00032C2BD32153B217F33CDD90732C3BD32153B212634CDD90732C4BD32153B3A7DD5
:2031000033FE01C2923121972ACDBE01117F33D5219F2AE5AFCD680532C5BD32153B2126BD
:2031200034E52A8FBDE5AFCD560632C6BD32153BFD210100FD22613301CD34C5217F33CDD3
:20314000760B32C7BDB7202C01CD34ED430D3B2A61332322613360697EFE3B2805CD2C245A
:2031600018102A0D3BE5212634CDBA0B32C8BD32153B18C4217F33CDD90732C9BD32153BF4
:20318000212634CDD90732CABD32153B217F33CD630B210000228000210000ED5B6533A753
:2031A000ED52300C2A6533CD610221AA2ACDBE01210000ED5B6733A7ED52300C2A6733CD6B
:2031C000610221C22ACDBE01210000ED5B6933A7ED52300C2A6933CD610221D92ACDBE0126
:2031E000210000ED5B6B33A7ED52300C2A6B33CD610221EF2ACDBE01210000ED5B7333A732
:20320000ED52300C2A7333CD610221082BCDBE01210000ED5B6333A7ED52300C2A6333CDA5
:20322000610221272BCDBE01210000ED5B6D33A7ED52300C2A6D33CD610221432BCDBE01EC
:20324000210000ED5B6F33A7ED52300C2A6F33CD6102215A2BCDBE01210000ED5B7133A75F
:20326000ED52300C2A7133CD610221762BCDBE01210000ED5B7533A7ED52300C2A7533CDB5
:20328000610221A62BCDBE01CDD6012A6133CD610221C92BCDBE0121E82BCDBE01C9C7CDFD
:2032A0002933E5DD36FE00DD36FF001852DD5E08DD5609DD6EFEDD66FF2929197E23666F55
:2032C000DD5E06DD5607B7ED522027DD6E0ADD660BE5DD6E08DD6609E5EBDD6EFEDD66FFB4
:2032E00029291923234E2346C5CD9F32C1C1C1C33533DD6EFEDD66FF23DD75FEDD74FFDD6A
:203300005E0ADD560BDD6EFEDD66FFCD1A33FAAD32DD6E06DD6607C335337CAAFA2233ED61
:2033200052C97CE680ED523CC9E1FDE5DDE5DD210000DD39E9DDF9DDE1FDE1C9E9E1FDE5E3
:20334000DDE5DD210000DD395E235623EB39F9EBE91A1A1A1A1A1A1A1A1A1A1A1A1A1A1A26
:203360001A1A1A1A1A1A1A1A1A1A1A1A1A1A1A1A1A1A1A1A1A1A1A1A1A1A1A1A1A1A1A1A0D
:00000001FF
